{
  "_format": "hh-sol-artifact-1",
  "contractName": "Upload",
  "sourceName": "contracts/Upload.sol",
  "abi": [
    {
      "inputs": [
        {
          "internalType": "address",
          "name": "_user",
          "type": "address"
        },
        {
          "internalType": "string",
          "name": "url",
          "type": "string"
        }
      ],
      "name": "add",
      "outputs": [],
      "stateMutability": "nonpayable",
      "type": "function"
    },
    {
      "inputs": [
        {
          "internalType": "address",
          "name": "user",
          "type": "address"
        }
      ],
      "name": "allow",
      "outputs": [],
      "stateMutability": "nonpayable",
      "type": "function"
    },
    {
      "inputs": [
        {
          "internalType": "string",
          "name": "imageHash",
          "type": "string"
        }
      ],
      "name": "deleteImage",
      "outputs": [],
      "stateMutability": "nonpayable",
      "type": "function"
    },
    {
      "inputs": [
        {
          "internalType": "address",
          "name": "user",
          "type": "address"
        }
      ],
      "name": "disallow",
      "outputs": [],
      "stateMutability": "nonpayable",
      "type": "function"
    },
    {
      "inputs": [
        {
          "internalType": "address",
          "name": "_user",
          "type": "address"
        }
      ],
      "name": "display",
      "outputs": [
        {
          "internalType": "string[]",
          "name": "",
          "type": "string[]"
        }
      ],
      "stateMutability": "view",
      "type": "function"
    },
    {
      "inputs": [],
      "name": "getSharedWithMe",
      "outputs": [
        {
          "internalType": "address[]",
          "name": "",
          "type": "address[]"
        }
      ],
      "stateMutability": "view",
      "type": "function"
    },
    {
      "inputs": [],
      "name": "shareAccess",
      "outputs": [
        {
          "components": [
            {
              "internalType": "address",
              "name": "user",
              "type": "address"
            },
            {
              "internalType": "bool",
              "name": "access",
              "type": "bool"
            }
          ],
          "internalType": "struct Upload.Access[]",
          "name": "",
          "type": "tuple[]"
        }
      ],
      "stateMutability": "view",
      "type": "function"
    }
  ],
  "bytecode": "0x608060405234801561001057600080fd5b50611ce1806100206000396000f3fe608060405234801561001057600080fd5b506004361061007d5760003560e01c8063a9ed9cb81161005b578063a9ed9cb8146100d8578063bc8bef81146100f4578063eb39113f14610112578063ff9913e8146101425761007d565b80630768b426146100825780631e2de337146100a057806336d6da55146100bc575b600080fd5b61008a61015e565b60405161009791906114ba565b60405180910390f35b6100ba60048036038101906100b59190611636565b610229565b005b6100d660048036038101906100d191906116ab565b610398565b005b6100f260048036038101906100ed9190611707565b610414565b005b6100fc610933565b604051610109919061182d565b60405180910390f35b61012c60048036038101906101279190611707565b610a3c565b6040516101399190611999565b60405180910390f35b61015c60048036038101906101579190611707565b610c52565b005b6060600460003373ffffffffffffffffffffffffffffffffffffffff1673ffffffffffffffffffffffffffffffffffffffff16815260200190815260200160002080548060200260200160405190810160405280929190818152602001828054801561021f57602002820191906000526020600020905b8160009054906101000a900473ffffffffffffffffffffffffffffffffffffffff1673ffffffffffffffffffffffffffffffffffffffff16815260200190600101908083116101d5575b5050505050905090565b60008060003373ffffffffffffffffffffffffffffffffffffffff1673ffffffffffffffffffffffffffffffffffffffff168152602001908152602001600020905060005b8180549050811015610393578260405160200161028b91906119f7565b604051602081830303815290604052805190602001208282815481106102b4576102b3611a0e565b5b906000526020600020016040516020016102ce9190611b32565b6040516020818303038152906040528051906020012014156103805781600183805490506102fc9190611b82565b8154811061030d5761030c611a0e565b5b9060005260206000200182828154811061032a57610329611a0e565b5b9060005260206000200190805461034090611a6c565b61034b92919061125a565b508180548061035d5761035c611bb6565b5b60019003818190600052602060002001600061037991906112e7565b9055610393565b808061038b90611be5565b91505061026e565b505050565b6000808373ffffffffffffffffffffffffffffffffffffffff1673ffffffffffffffffffffffffffffffffffffffff1681526020019081526020016000208190806001815401808255809150506001900390600052602060002001600090919091909150908051906020019061040f929190611327565b505050565b6000600160003373ffffffffffffffffffffffffffffffffffffffff1673ffffffffffffffffffffffffffffffffffffffff16815260200190815260200160002060008373ffffffffffffffffffffffffffffffffffffffff1673ffffffffffffffffffffffffffffffffffffffff16815260200190815260200160002060006101000a81548160ff02191690831515021790555060005b600260003373ffffffffffffffffffffffffffffffffffffffff1673ffffffffffffffffffffffffffffffffffffffff16815260200190815260200160002080549050811015610633578173ffffffffffffffffffffffffffffffffffffffff16600260003373ffffffffffffffffffffffffffffffffffffffff1673ffffffffffffffffffffffffffffffffffffffff168152602001908152602001600020828154811061055e5761055d611a0e565b5b9060005260206000200160000160009054906101000a900473ffffffffffffffffffffffffffffffffffffffff1673ffffffffffffffffffffffffffffffffffffffff161415610620576000600260003373ffffffffffffffffffffffffffffffffffffffff1673ffffffffffffffffffffffffffffffffffffffff16815260200190815260200160002082815481106105fb576105fa611a0e565b5b9060005260206000200160000160146101000a81548160ff0219169083151502179055505b808061062b90611be5565b9150506104ac565b5060005b600460008373ffffffffffffffffffffffffffffffffffffffff1673ffffffffffffffffffffffffffffffffffffffff1681526020019081526020016000208054905081101561092f573373ffffffffffffffffffffffffffffffffffffffff16600460008473ffffffffffffffffffffffffffffffffffffffff1673ffffffffffffffffffffffffffffffffffffffff16815260200190815260200160002082815481106106e9576106e8611a0e565b5b9060005260206000200160009054906101000a900473ffffffffffffffffffffffffffffffffffffffff1673ffffffffffffffffffffffffffffffffffffffff16141561091c57600460008373ffffffffffffffffffffffffffffffffffffffff1673ffffffffffffffffffffffffffffffffffffffff1681526020019081526020016000206001600460008573ffffffffffffffffffffffffffffffffffffffff1673ffffffffffffffffffffffffffffffffffffffff168152602001908152602001600020805490506107be9190611b82565b815481106107cf576107ce611a0e565b5b9060005260206000200160009054906101000a900473ffffffffffffffffffffffffffffffffffffffff16600460008473ffffffffffffffffffffffffffffffffffffffff1673ffffffffffffffffffffffffffffffffffffffff168152602001908152602001600020828154811061084b5761084a611a0e565b5b9060005260206000200160006101000a81548173ffffffffffffffffffffffffffffffffffffffff021916908373ffffffffffffffffffffffffffffffffffffffff160217905550600460008373ffffffffffffffffffffffffffffffffffffffff1673ffffffffffffffffffffffffffffffffffffffff1681526020019081526020016000208054806108e2576108e1611bb6565b5b6001900381819060005260206000200160006101000a81549073ffffffffffffffffffffffffffffffffffffffff0219169055905561092f565b808061092790611be5565b915050610637565b5050565b6060600260003373ffffffffffffffffffffffffffffffffffffffff1673ffffffffffffffffffffffffffffffffffffffff168152602001908152602001600020805480602002602001604051908101604052809291908181526020016000905b82821015610a33578382906000526020600020016040518060400160405290816000820160009054906101000a900473ffffffffffffffffffffffffffffffffffffffff1673ffffffffffffffffffffffffffffffffffffffff1673ffffffffffffffffffffffffffffffffffffffff1681526020016000820160149054906101000a900460ff16151515158152505081526020019060010190610994565b50505050905090565b60603373ffffffffffffffffffffffffffffffffffffffff168273ffffffffffffffffffffffffffffffffffffffff161480610afe5750600160008373ffffffffffffffffffffffffffffffffffffffff1673ffffffffffffffffffffffffffffffffffffffff16815260200190815260200160002060003373ffffffffffffffffffffffffffffffffffffffff1673ffffffffffffffffffffffffffffffffffffffff16815260200190815260200160002060009054906101000a900460ff165b610b3d576040517f08c379a0000000000000000000000000000000000000000000000000000000008152600401610b3490611c8b565b60405180910390fd5b6000808373ffffffffffffffffffffffffffffffffffffffff1673ffffffffffffffffffffffffffffffffffffffff168152602001908152602001600020805480602002602001604051908101604052809291908181526020016000905b82821015610c47578382906000526020600020018054610bba90611a6c565b80601f0160208091040260200160405190810160405280929190818152602001828054610be690611a6c565b8015610c335780601f10610c0857610100808354040283529160200191610c33565b820191906000526020600020905b815481529060010190602001808311610c1657829003601f168201915b505050505081526020019060010190610b9b565b505050509050919050565b60018060003373ffffffffffffffffffffffffffffffffffffffff1673ffffffffffffffffffffffffffffffffffffffff16815260200190815260200160002060008373ffffffffffffffffffffffffffffffffffffffff1673ffffffffffffffffffffffffffffffffffffffff16815260200190815260200160002060006101000a81548160ff021916908315150217905550600360003373ffffffffffffffffffffffffffffffffffffffff1673ffffffffffffffffffffffffffffffffffffffff16815260200190815260200160002060008273ffffffffffffffffffffffffffffffffffffffff1673ffffffffffffffffffffffffffffffffffffffff16815260200190815260200160002060009054906101000a900460ff1615610f055760005b600260003373ffffffffffffffffffffffffffffffffffffffff1673ffffffffffffffffffffffffffffffffffffffff16815260200190815260200160002080549050811015610eff578173ffffffffffffffffffffffffffffffffffffffff16600260003373ffffffffffffffffffffffffffffffffffffffff1673ffffffffffffffffffffffffffffffffffffffff1681526020019081526020016000208281548110610e2a57610e29611a0e565b5b9060005260206000200160000160009054906101000a900473ffffffffffffffffffffffffffffffffffffffff1673ffffffffffffffffffffffffffffffffffffffff161415610eec576001600260003373ffffffffffffffffffffffffffffffffffffffff1673ffffffffffffffffffffffffffffffffffffffff1681526020019081526020016000208281548110610ec757610ec6611a0e565b5b9060005260206000200160000160146101000a81548160ff0219169083151502179055505b8080610ef790611be5565b915050610d78565b50611096565b600260003373ffffffffffffffffffffffffffffffffffffffff1673ffffffffffffffffffffffffffffffffffffffff16815260200190815260200160002060405180604001604052808373ffffffffffffffffffffffffffffffffffffffff168152602001600115158152509080600181540180825580915050600190039060005260206000200160009091909190915060008201518160000160006101000a81548173ffffffffffffffffffffffffffffffffffffffff021916908373ffffffffffffffffffffffffffffffffffffffff16021790555060208201518160000160146101000a81548160ff02191690831515021790555050506001600360003373ffffffffffffffffffffffffffffffffffffffff1673ffffffffffffffffffffffffffffffffffffffff16815260200190815260200160002060008373ffffffffffffffffffffffffffffffffffffffff1673ffffffffffffffffffffffffffffffffffffffff16815260200190815260200160002060006101000a81548160ff0219169083151502179055505b6000805b600460008473ffffffffffffffffffffffffffffffffffffffff1673ffffffffffffffffffffffffffffffffffffffff168152602001908152602001600020805490508110156111af573373ffffffffffffffffffffffffffffffffffffffff16600460008573ffffffffffffffffffffffffffffffffffffffff1673ffffffffffffffffffffffffffffffffffffffff168152602001908152602001600020828154811061114c5761114b611a0e565b5b9060005260206000200160009054906101000a900473ffffffffffffffffffffffffffffffffffffffff1673ffffffffffffffffffffffffffffffffffffffff16141561119c57600191506111af565b80806111a790611be5565b91505061109a565b508061125657600460008373ffffffffffffffffffffffffffffffffffffffff1673ffffffffffffffffffffffffffffffffffffffff168152602001908152602001600020339080600181540180825580915050600190039060005260206000200160009091909190916101000a81548173ffffffffffffffffffffffffffffffffffffffff021916908373ffffffffffffffffffffffffffffffffffffffff1602179055505b5050565b82805461126690611a6c565b90600052602060002090601f01602090048101928261128857600085556112d6565b82601f1061129957805485556112d6565b828001600101855582156112d657600052602060002091601f016020900482015b828111156112d55782548255916001019190600101906112ba565b5b5090506112e391906113ad565b5090565b5080546112f390611a6c565b6000825580601f106113055750611324565b601f01602090049060005260206000209081019061132391906113ad565b5b50565b82805461133390611a6c565b90600052602060002090601f016020900481019282611355576000855561139c565b82601f1061136e57805160ff191683800117855561139c565b8280016001018555821561139c579182015b8281111561139b578251825591602001919060010190611380565b5b5090506113a991906113ad565b5090565b5b808211156113c65760008160009055506001016113ae565b5090565b600081519050919050565b600082825260208201905092915050565b6000819050602082019050919050565b600073ffffffffffffffffffffffffffffffffffffffff82169050919050565b6000611421826113f6565b9050919050565b61143181611416565b82525050565b60006114438383611428565b60208301905092915050565b6000602082019050919050565b6000611467826113ca565b61147181856113d5565b935061147c836113e6565b8060005b838110156114ad5781516114948882611437565b975061149f8361144f565b925050600181019050611480565b5085935050505092915050565b600060208201905081810360008301526114d4818461145c565b905092915050565b6000604051905090565b600080fd5b600080fd5b600080fd5b600080fd5b6000601f19601f8301169050919050565b7f4e487b7100000000000000000000000000000000000000000000000000000000600052604160045260246000fd5b611543826114fa565b810181811067ffffffffffffffff821117156115625761156161150b565b5b80604052505050565b60006115756114dc565b9050611581828261153a565b919050565b600067ffffffffffffffff8211156115a1576115a061150b565b5b6115aa826114fa565b9050602081019050919050565b82818337600083830152505050565b60006115d96115d484611586565b61156b565b9050828152602081018484840111156115f5576115f46114f5565b5b6116008482856115b7565b509392505050565b600082601f83011261161d5761161c6114f0565b5b813561162d8482602086016115c6565b91505092915050565b60006020828403121561164c5761164b6114e6565b5b600082013567ffffffffffffffff81111561166a576116696114eb565b5b61167684828501611608565b91505092915050565b61168881611416565b811461169357600080fd5b50565b6000813590506116a58161167f565b92915050565b600080604083850312156116c2576116c16114e6565b5b60006116d085828601611696565b925050602083013567ffffffffffffffff8111156116f1576116f06114eb565b5b6116fd85828601611608565b9150509250929050565b60006020828403121561171d5761171c6114e6565b5b600061172b84828501611696565b91505092915050565b600081519050919050565b600082825260208201905092915050565b6000819050602082019050919050565b60008115159050919050565b61177581611760565b82525050565b6040820160008201516117916000850182611428565b5060208201516117a4602085018261176c565b50505050565b60006117b6838361177b565b60408301905092915050565b6000602082019050919050565b60006117da82611734565b6117e4818561173f565b93506117ef83611750565b8060005b8381101561182057815161180788826117aa565b9750611812836117c2565b9250506001810190506117f3565b5085935050505092915050565b6000602082019050818103600083015261184781846117cf565b905092915050565b600081519050919050565b600082825260208201905092915050565b6000819050602082019050919050565b600081519050919050565b600082825260208201905092915050565b60005b838110156118b557808201518184015260208101905061189a565b838111156118c4576000848401525b50505050565b60006118d58261187b565b6118df8185611886565b93506118ef818560208601611897565b6118f8816114fa565b840191505092915050565b600061190f83836118ca565b905092915050565b6000602082019050919050565b600061192f8261184f565b611939818561185a565b93508360208202850161194b8561186b565b8060005b8581101561198757848403895281516119688582611903565b945061197383611917565b925060208a0199505060018101905061194f565b50829750879550505050505092915050565b600060208201905081810360008301526119b38184611924565b905092915050565b600081905092915050565b60006119d18261187b565b6119db81856119bb565b93506119eb818560208601611897565b80840191505092915050565b6000611a0382846119c6565b915081905092915050565b7f4e487b7100000000000000000000000000000000000000000000000000000000600052603260045260246000fd5b7f4e487b7100000000000000000000000000000000000000000000000000000000600052602260045260246000fd5b60006002820490506001821680611a8457607f821691505b60208210811415611a9857611a97611a3d565b5b50919050565b60008190508160005260206000209050919050565b60008154611ac081611a6c565b611aca81866119bb565b94506001821660008114611ae55760018114611af657611b29565b60ff19831686528186019350611b29565b611aff85611a9e565b60005b83811015611b2157815481890152600182019150602081019050611b02565b838801955050505b50505092915050565b6000611b3e8284611ab3565b915081905092915050565b6000819050919050565b7f4e487b7100000000000000000000000000000000000000000000000000000000600052601160045260246000fd5b6000611b8d82611b49565b9150611b9883611b49565b925082821015611bab57611baa611b53565b5b828203905092915050565b7f4e487b7100000000000000000000000000000000000000000000000000000000600052603160045260246000fd5b6000611bf082611b49565b91507fffffffffffffffffffffffffffffffffffffffffffffffffffffffffffffffff821415611c2357611c22611b53565b5b600182019050919050565b600082825260208201905092915050565b7f596f7520646f6e27742068617665206163636573730000000000000000000000600082015250565b6000611c75601583611c2e565b9150611c8082611c3f565b602082019050919050565b60006020820190508181036000830152611ca481611c68565b905091905056fea2646970667358221220b52e082a1f402dcc6bfad999de77ecf994e316d9abc8aec61904e904e36fa6bb64736f6c63430008090033",
  "linkReferences": {},
  "deployedLinkReferences": {}
}