{
  "_format": "hh-sol-artifact-1",
  "contractName": "Upload",
  "sourceName": "contracts/Upload.sol",
  "abi": [
    {
      "inputs": [
        {
          "internalType": "address",
          "name": "_user",
          "type": "address"
        },
        {
          "internalType": "string",
          "name": "url",
          "type": "string"
        }
      ],
      "name": "add",
      "outputs": [],
      "stateMutability": "nonpayable",
      "type": "function"
    },
    {
      "inputs": [
        {
          "internalType": "address",
          "name": "user",
          "type": "address"
        }
      ],
      "name": "allow",
      "outputs": [],
      "stateMutability": "nonpayable",
      "type": "function"
    },
    {
      "inputs": [
        {
          "internalType": "string",
          "name": "imageHash",
          "type": "string"
        }
      ],
      "name": "deleteImage",
      "outputs": [],
      "stateMutability": "nonpayable",
      "type": "function"
    },
    {
      "inputs": [
        {
          "internalType": "address",
          "name": "user",
          "type": "address"
        }
      ],
      "name": "disallow",
      "outputs": [],
      "stateMutability": "nonpayable",
      "type": "function"
    },
    {
      "inputs": [
        {
          "internalType": "address",
          "name": "_user",
          "type": "address"
        }
      ],
      "name": "display",
      "outputs": [
        {
          "internalType": "string[]",
          "name": "",
          "type": "string[]"
        }
      ],
      "stateMutability": "view",
      "type": "function"
    },
    {
      "inputs": [],
      "name": "getSharedWithMe",
      "outputs": [
        {
          "internalType": "address[]",
          "name": "",
          "type": "address[]"
        }
      ],
      "stateMutability": "view",
      "type": "function"
    },
    {
      "inputs": [],
      "name": "shareAccess",
      "outputs": [
        {
          "components": [
            {
              "internalType": "address",
              "name": "user",
              "type": "address"
            },
            {
              "internalType": "bool",
              "name": "access",
              "type": "bool"
            }
          ],
          "internalType": "struct Upload.Access[]",
          "name": "",
          "type": "tuple[]"
        }
      ],
      "stateMutability": "view",
      "type": "function"
    }
  ],
  "bytecode": "0x608060405234801561001057600080fd5b50611a41806100206000396000f3fe608060405234801561001057600080fd5b506004361061007d5760003560e01c8063a9ed9cb81161005b578063a9ed9cb8146100d8578063bc8bef81146100f4578063eb39113f14610112578063ff9913e8146101425761007d565b80630768b426146100825780631e2de337146100a057806336d6da55146100bc575b600080fd5b61008a61015e565b604051610097919061121a565b60405180910390f35b6100ba60048036038101906100b59190611396565b610446565b005b6100d660048036038101906100d1919061140b565b6105b5565b005b6100f260048036038101906100ed9190611467565b610631565b005b6100fc610854565b604051610109919061158d565b60405180910390f35b61012c60048036038101906101279190611467565b61095d565b60405161013991906116f9565b60405180910390f35b61015c60048036038101906101579190611467565b610b73565b005b60606000805b600260003373ffffffffffffffffffffffffffffffffffffffff1673ffffffffffffffffffffffffffffffffffffffff1681526020019081526020016000208054905081101561024157600260003373ffffffffffffffffffffffffffffffffffffffff1673ffffffffffffffffffffffffffffffffffffffff16815260200190815260200160002081815481106101ff576101fe61171b565b5b9060005260206000200160000160149054906101000a900460ff161561022e57818061022a90611783565b9250505b808061023990611783565b915050610164565b5060008167ffffffffffffffff81111561025e5761025d61126b565b5b60405190808252806020026020018201604052801561028c5781602001602082028036833780820191505090505b5090506000805b600260003373ffffffffffffffffffffffffffffffffffffffff1673ffffffffffffffffffffffffffffffffffffffff1681526020019081526020016000208054905081101561043c57600260003373ffffffffffffffffffffffffffffffffffffffff1673ffffffffffffffffffffffffffffffffffffffff168152602001908152602001600020818154811061032e5761032d61171b565b5b9060005260206000200160000160149054906101000a900460ff161561042957600260003373ffffffffffffffffffffffffffffffffffffffff1673ffffffffffffffffffffffffffffffffffffffff168152602001908152602001600020818154811061039f5761039e61171b565b5b9060005260206000200160000160009054906101000a900473ffffffffffffffffffffffffffffffffffffffff168383815181106103e0576103df61171b565b5b602002602001019073ffffffffffffffffffffffffffffffffffffffff16908173ffffffffffffffffffffffffffffffffffffffff1681525050818061042590611783565b9250505b808061043490611783565b915050610293565b5081935050505090565b60008060003373ffffffffffffffffffffffffffffffffffffffff1673ffffffffffffffffffffffffffffffffffffffff168152602001908152602001600020905060005b81805490508110156105b057826040516020016104a89190611808565b604051602081830303815290604052805190602001208282815481106104d1576104d061171b565b5b906000526020600020016040516020016104eb9190611914565b60405160208183030381529060405280519060200120141561059d578160018380549050610519919061192b565b8154811061052a5761052961171b565b5b906000526020600020018282815481106105475761054661171b565b5b9060005260206000200190805461055d9061184e565b610568929190610fba565b508180548061057a5761057961195f565b5b6001900381819060005260206000200160006105969190611047565b90556105b0565b80806105a890611783565b91505061048b565b505050565b6000808373ffffffffffffffffffffffffffffffffffffffff1673ffffffffffffffffffffffffffffffffffffffff1681526020019081526020016000208190806001815401808255809150506001900390600052602060002001600090919091909150908051906020019061062c929190611087565b505050565b6000600160003373ffffffffffffffffffffffffffffffffffffffff1673ffffffffffffffffffffffffffffffffffffffff16815260200190815260200160002060008373ffffffffffffffffffffffffffffffffffffffff1673ffffffffffffffffffffffffffffffffffffffff16815260200190815260200160002060006101000a81548160ff02191690831515021790555060005b600260003373ffffffffffffffffffffffffffffffffffffffff1673ffffffffffffffffffffffffffffffffffffffff16815260200190815260200160002080549050811015610850578173ffffffffffffffffffffffffffffffffffffffff16600260003373ffffffffffffffffffffffffffffffffffffffff1673ffffffffffffffffffffffffffffffffffffffff168152602001908152602001600020828154811061077b5761077a61171b565b5b9060005260206000200160000160009054906101000a900473ffffffffffffffffffffffffffffffffffffffff1673ffffffffffffffffffffffffffffffffffffffff16141561083d576000600260003373ffffffffffffffffffffffffffffffffffffffff1673ffffffffffffffffffffffffffffffffffffffff16815260200190815260200160002082815481106108185761081761171b565b5b9060005260206000200160000160146101000a81548160ff0219169083151502179055505b808061084890611783565b9150506106c9565b5050565b6060600260003373ffffffffffffffffffffffffffffffffffffffff1673ffffffffffffffffffffffffffffffffffffffff168152602001908152602001600020805480602002602001604051908101604052809291908181526020016000905b82821015610954578382906000526020600020016040518060400160405290816000820160009054906101000a900473ffffffffffffffffffffffffffffffffffffffff1673ffffffffffffffffffffffffffffffffffffffff1673ffffffffffffffffffffffffffffffffffffffff1681526020016000820160149054906101000a900460ff161515151581525050815260200190600101906108b5565b50505050905090565b60603373ffffffffffffffffffffffffffffffffffffffff168273ffffffffffffffffffffffffffffffffffffffff161480610a1f5750600160008373ffffffffffffffffffffffffffffffffffffffff1673ffffffffffffffffffffffffffffffffffffffff16815260200190815260200160002060003373ffffffffffffffffffffffffffffffffffffffff1673ffffffffffffffffffffffffffffffffffffffff16815260200190815260200160002060009054906101000a900460ff165b610a5e576040517f08c379a0000000000000000000000000000000000000000000000000000000008152600401610a55906119eb565b60405180910390fd5b6000808373ffffffffffffffffffffffffffffffffffffffff1673ffffffffffffffffffffffffffffffffffffffff168152602001908152602001600020805480602002602001604051908101604052809291908181526020016000905b82821015610b68578382906000526020600020018054610adb9061184e565b80601f0160208091040260200160405190810160405280929190818152602001828054610b079061184e565b8015610b545780601f10610b2957610100808354040283529160200191610b54565b820191906000526020600020905b815481529060010190602001808311610b3757829003601f168201915b505050505081526020019060010190610abc565b505050509050919050565b60018060003373ffffffffffffffffffffffffffffffffffffffff1673ffffffffffffffffffffffffffffffffffffffff16815260200190815260200160002060008373ffffffffffffffffffffffffffffffffffffffff1673ffffffffffffffffffffffffffffffffffffffff16815260200190815260200160002060006101000a81548160ff021916908315150217905550600360003373ffffffffffffffffffffffffffffffffffffffff1673ffffffffffffffffffffffffffffffffffffffff16815260200190815260200160002060008273ffffffffffffffffffffffffffffffffffffffff1673ffffffffffffffffffffffffffffffffffffffff16815260200190815260200160002060009054906101000a900460ff1615610e265760005b600260003373ffffffffffffffffffffffffffffffffffffffff1673ffffffffffffffffffffffffffffffffffffffff16815260200190815260200160002080549050811015610e20578173ffffffffffffffffffffffffffffffffffffffff16600260003373ffffffffffffffffffffffffffffffffffffffff1673ffffffffffffffffffffffffffffffffffffffff1681526020019081526020016000208281548110610d4b57610d4a61171b565b5b9060005260206000200160000160009054906101000a900473ffffffffffffffffffffffffffffffffffffffff1673ffffffffffffffffffffffffffffffffffffffff161415610e0d576001600260003373ffffffffffffffffffffffffffffffffffffffff1673ffffffffffffffffffffffffffffffffffffffff1681526020019081526020016000208281548110610de857610de761171b565b5b9060005260206000200160000160146101000a81548160ff0219169083151502179055505b8080610e1890611783565b915050610c99565b50610fb7565b600260003373ffffffffffffffffffffffffffffffffffffffff1673ffffffffffffffffffffffffffffffffffffffff16815260200190815260200160002060405180604001604052808373ffffffffffffffffffffffffffffffffffffffff168152602001600115158152509080600181540180825580915050600190039060005260206000200160009091909190915060008201518160000160006101000a81548173ffffffffffffffffffffffffffffffffffffffff021916908373ffffffffffffffffffffffffffffffffffffffff16021790555060208201518160000160146101000a81548160ff02191690831515021790555050506001600360003373ffffffffffffffffffffffffffffffffffffffff1673ffffffffffffffffffffffffffffffffffffffff16815260200190815260200160002060008373ffffffffffffffffffffffffffffffffffffffff1673ffffffffffffffffffffffffffffffffffffffff16815260200190815260200160002060006101000a81548160ff0219169083151502179055505b50565b828054610fc69061184e565b90600052602060002090601f016020900481019282610fe85760008555611036565b82601f10610ff95780548555611036565b8280016001018555821561103657600052602060002091601f016020900482015b8281111561103557825482559160010191906001019061101a565b5b509050611043919061110d565b5090565b5080546110539061184e565b6000825580601f106110655750611084565b601f016020900490600052602060002090810190611083919061110d565b5b50565b8280546110939061184e565b90600052602060002090601f0160209004810192826110b557600085556110fc565b82601f106110ce57805160ff19168380011785556110fc565b828001600101855582156110fc579182015b828111156110fb5782518255916020019190600101906110e0565b5b509050611109919061110d565b5090565b5b8082111561112657600081600090555060010161110e565b5090565b600081519050919050565b600082825260208201905092915050565b6000819050602082019050919050565b600073ffffffffffffffffffffffffffffffffffffffff82169050919050565b600061118182611156565b9050919050565b61119181611176565b82525050565b60006111a38383611188565b60208301905092915050565b6000602082019050919050565b60006111c78261112a565b6111d18185611135565b93506111dc83611146565b8060005b8381101561120d5781516111f48882611197565b97506111ff836111af565b9250506001810190506111e0565b5085935050505092915050565b6000602082019050818103600083015261123481846111bc565b905092915050565b6000604051905090565b600080fd5b600080fd5b600080fd5b600080fd5b6000601f19601f8301169050919050565b7f4e487b7100000000000000000000000000000000000000000000000000000000600052604160045260246000fd5b6112a38261125a565b810181811067ffffffffffffffff821117156112c2576112c161126b565b5b80604052505050565b60006112d561123c565b90506112e1828261129a565b919050565b600067ffffffffffffffff8211156113015761130061126b565b5b61130a8261125a565b9050602081019050919050565b82818337600083830152505050565b6000611339611334846112e6565b6112cb565b90508281526020810184848401111561135557611354611255565b5b611360848285611317565b509392505050565b600082601f83011261137d5761137c611250565b5b813561138d848260208601611326565b91505092915050565b6000602082840312156113ac576113ab611246565b5b600082013567ffffffffffffffff8111156113ca576113c961124b565b5b6113d684828501611368565b91505092915050565b6113e881611176565b81146113f357600080fd5b50565b600081359050611405816113df565b92915050565b6000806040838503121561142257611421611246565b5b6000611430858286016113f6565b925050602083013567ffffffffffffffff8111156114515761145061124b565b5b61145d85828601611368565b9150509250929050565b60006020828403121561147d5761147c611246565b5b600061148b848285016113f6565b91505092915050565b600081519050919050565b600082825260208201905092915050565b6000819050602082019050919050565b60008115159050919050565b6114d5816114c0565b82525050565b6040820160008201516114f16000850182611188565b50602082015161150460208501826114cc565b50505050565b600061151683836114db565b60408301905092915050565b6000602082019050919050565b600061153a82611494565b611544818561149f565b935061154f836114b0565b8060005b83811015611580578151611567888261150a565b975061157283611522565b925050600181019050611553565b5085935050505092915050565b600060208201905081810360008301526115a7818461152f565b905092915050565b600081519050919050565b600082825260208201905092915050565b6000819050602082019050919050565b600081519050919050565b600082825260208201905092915050565b60005b838110156116155780820151818401526020810190506115fa565b83811115611624576000848401525b50505050565b6000611635826115db565b61163f81856115e6565b935061164f8185602086016115f7565b6116588161125a565b840191505092915050565b600061166f838361162a565b905092915050565b6000602082019050919050565b600061168f826115af565b61169981856115ba565b9350836020820285016116ab856115cb565b8060005b858110156116e757848403895281516116c88582611663565b94506116d383611677565b925060208a019950506001810190506116af565b50829750879550505050505092915050565b600060208201905081810360008301526117138184611684565b905092915050565b7f4e487b7100000000000000000000000000000000000000000000000000000000600052603260045260246000fd5b7f4e487b7100000000000000000000000000000000000000000000000000000000600052601160045260246000fd5b6000819050919050565b600061178e82611779565b91507fffffffffffffffffffffffffffffffffffffffffffffffffffffffffffffffff8214156117c1576117c061174a565b5b600182019050919050565b600081905092915050565b60006117e2826115db565b6117ec81856117cc565b93506117fc8185602086016115f7565b80840191505092915050565b600061181482846117d7565b915081905092915050565b7f4e487b7100000000000000000000000000000000000000000000000000000000600052602260045260246000fd5b6000600282049050600182168061186657607f821691505b6020821081141561187a5761187961181f565b5b50919050565b60008190508160005260206000209050919050565b600081546118a28161184e565b6118ac81866117cc565b945060018216600081146118c757600181146118d85761190b565b60ff1983168652818601935061190b565b6118e185611880565b60005b83811015611903578154818901526001820191506020810190506118e4565b838801955050505b50505092915050565b60006119208284611895565b915081905092915050565b600061193682611779565b915061194183611779565b9250828210156119545761195361174a565b5b828203905092915050565b7f4e487b7100000000000000000000000000000000000000000000000000000000600052603160045260246000fd5b600082825260208201905092915050565b7f596f7520646f6e27742068617665206163636573730000000000000000000000600082015250565b60006119d560158361198e565b91506119e08261199f565b602082019050919050565b60006020820190508181036000830152611a04816119c8565b905091905056fea264697066735822122039ff3217ade657f0c262f3dec3bf32aa6ba2bb18ef9de33dd93ed087387c87d864736f6c63430008090033",
  "linkReferences": {},
  "deployedLinkReferences": {}
}